{
  "_format": "hh-sol-artifact-1",
  "contractName": "BuyMeACoffee",
  "sourceName": "contracts/BuyMeACoffee.sol",
  "abi": [
    {
      "inputs": [],
      "stateMutability": "nonpayable",
      "type": "constructor"
    },
    {
      "anonymous": false,
      "inputs": [
        {
          "indexed": true,
          "internalType": "address",
          "name": "from",
          "type": "address"
        },
        {
          "indexed": false,
          "internalType": "uint256",
          "name": "timestamp",
          "type": "uint256"
        },
        {
          "indexed": false,
          "internalType": "string",
          "name": "message",
          "type": "string"
        }
      ],
      "name": "NewCoffee",
      "type": "event"
    },
    {
      "inputs": [
        {
          "internalType": "string",
          "name": "_message",
          "type": "string"
        }
      ],
      "name": "buyCoffee",
      "outputs": [],
      "stateMutability": "payable",
      "type": "function"
    },
    {
      "inputs": [],
      "name": "getCoffees",
      "outputs": [
        {
          "components": [
            {
              "internalType": "address",
              "name": "from",
              "type": "address"
            },
            {
              "internalType": "uint256",
              "name": "timestamp",
              "type": "uint256"
            },
            {
              "internalType": "string",
              "name": "message",
              "type": "string"
            }
          ],
          "internalType": "struct BuyMeACoffee.Coffee[]",
          "name": "",
          "type": "tuple[]"
        }
      ],
      "stateMutability": "view",
      "type": "function"
    }
  ],
  "bytecode": "0x6080604052348015600f57600080fd5b50336000806101000a81548173ffffffffffffffffffffffffffffffffffffffff021916908373ffffffffffffffffffffffffffffffffffffffff160217905550610b418061005f6000396000f3fe6080604052600436106100295760003560e01c80632b371b541461002e5780635b0c306d1461004a575b600080fd5b610048600480360381019061004391906104e2565b610075565b005b34801561005657600080fd5b5061005f610237565b60405161006c9190610716565b60405180910390f35b600034116100b8576040517f08c379a00000000000000000000000000000000000000000000000000000000081526004016100af90610795565b60405180910390fd5b600160405180606001604052803373ffffffffffffffffffffffffffffffffffffffff16815260200142815260200183815250908060018154018082558091505060019003906000526020600020906003020160009091909190915060008201518160000160006101000a81548173ffffffffffffffffffffffffffffffffffffffff021916908373ffffffffffffffffffffffffffffffffffffffff16021790555060208201518160010155604082015181600201908161017a91906109c1565b5050503373ffffffffffffffffffffffffffffffffffffffff167fb27aadfb092ec052f4b96786f876dd03a93556f9dc3b6bd4a8f7c0ef5ddab69842836040516101c5929190610adb565b60405180910390a260008054906101000a900473ffffffffffffffffffffffffffffffffffffffff1673ffffffffffffffffffffffffffffffffffffffff166108fc349081150290604051600060405180830381858888f19350505050158015610233573d6000803e3d6000fd5b5050565b60606001805480602002602001604051908101604052809291908181526020016000905b8282101561037f57838290600052602060002090600302016040518060600160405290816000820160009054906101000a900473ffffffffffffffffffffffffffffffffffffffff1673ffffffffffffffffffffffffffffffffffffffff1673ffffffffffffffffffffffffffffffffffffffff168152602001600182015481526020016002820180546102ee906107e4565b80601f016020809104026020016040519081016040528092919081815260200182805461031a906107e4565b80156103675780601f1061033c57610100808354040283529160200191610367565b820191906000526020600020905b81548152906001019060200180831161034a57829003601f168201915b5050505050815250508152602001906001019061025b565b50505050905090565b6000604051905090565b600080fd5b600080fd5b600080fd5b600080fd5b6000601f19601f8301169050919050565b7f4e487b7100000000000000000000000000000000000000000000000000000000600052604160045260246000fd5b6103ef826103a6565b810181811067ffffffffffffffff8211171561040e5761040d6103b7565b5b80604052505050565b6000610421610388565b905061042d82826103e6565b919050565b600067ffffffffffffffff82111561044d5761044c6103b7565b5b610456826103a6565b9050602081019050919050565b82818337600083830152505050565b600061048561048084610432565b610417565b9050828152602081018484840111156104a1576104a06103a1565b5b6104ac848285610463565b509392505050565b600082601f8301126104c9576104c861039c565b5b81356104d9848260208601610472565b91505092915050565b6000602082840312156104f8576104f7610392565b5b600082013567ffffffffffffffff81111561051657610515610397565b5b610522848285016104b4565b91505092915050565b600081519050919050565b600082825260208201905092915050565b6000819050602082019050919050565b600073ffffffffffffffffffffffffffffffffffffffff82169050919050565b600061058282610557565b9050919050565b61059281610577565b82525050565b6000819050919050565b6105ab81610598565b82525050565b600081519050919050565b600082825260208201905092915050565b60005b838110156105eb5780820151818401526020810190506105d0565b60008484015250505050565b6000610602826105b1565b61060c81856105bc565b935061061c8185602086016105cd565b610625816103a6565b840191505092915050565b60006060830160008301516106486000860182610589565b50602083015161065b60208601826105a2565b506040830151848203604086015261067382826105f7565b9150508091505092915050565b600061068c8383610630565b905092915050565b6000602082019050919050565b60006106ac8261052b565b6106b68185610536565b9350836020820285016106c885610547565b8060005b8581101561070457848403895281516106e58582610680565b94506106f083610694565b925060208a019950506001810190506106cc565b50829750879550505050505092915050565b6000602082019050818103600083015261073081846106a1565b905092915050565b600082825260208201905092915050565b7f43616e27742062757920636f6666656520776974682030204554480000000000600082015250565b600061077f601b83610738565b915061078a82610749565b602082019050919050565b600060208201905081810360008301526107ae81610772565b9050919050565b7f4e487b7100000000000000000000000000000000000000000000000000000000600052602260045260246000fd5b600060028204905060018216806107fc57607f821691505b60208210810361080f5761080e6107b5565b5b50919050565b60008190508160005260206000209050919050565b60006020601f8301049050919050565b600082821b905092915050565b6000600883026108777fffffffffffffffffffffffffffffffffffffffffffffffffffffffffffffffff8261083a565b610881868361083a565b95508019841693508086168417925050509392505050565b6000819050919050565b60006108be6108b96108b484610598565b610899565b610598565b9050919050565b6000819050919050565b6108d8836108a3565b6108ec6108e4826108c5565b848454610847565b825550505050565b600090565b6109016108f4565b61090c8184846108cf565b505050565b5b81811015610930576109256000826108f9565b600181019050610912565b5050565b601f8211156109755761094681610815565b61094f8461082a565b8101602085101561095e578190505b61097261096a8561082a565b830182610911565b50505b505050565b600082821c905092915050565b60006109986000198460080261097a565b1980831691505092915050565b60006109b18383610987565b9150826002028217905092915050565b6109ca826105b1565b67ffffffffffffffff8111156109e3576109e26103b7565b5b6109ed82546107e4565b6109f8828285610934565b600060209050601f831160018114610a2b5760008415610a19578287015190505b610a2385826109a5565b865550610a8b565b601f198416610a3986610815565b60005b82811015610a6157848901518255600182019150602085019450602081019050610a3c565b86831015610a7e5784890151610a7a601f891682610987565b8355505b6001600288020188555050505b505050505050565b610a9c81610598565b82525050565b6000610aad826105b1565b610ab78185610738565b9350610ac78185602086016105cd565b610ad0816103a6565b840191505092915050565b6000604082019050610af06000830185610a93565b8181036020830152610b028184610aa2565b9050939250505056fea2646970667358221220ffc95df5334c9f79a90427047bc4797378d15cd8affcba142e08341c76d2be7964736f6c634300081b0033",
  "linkReferences": {},
  "deployedLinkReferences": {}
}